:10000000B3C10000E2C10000E0C10000DEC1000099
:10001000DCC10000DAC10000D8C10000D6C1000078
:10002000D4C10000D2C10000D0C10000CEC1000088
:10003000CCC10000CAC10000C8C10000C6C1000098
:10004000C4C10000C2C10000C0C10000BEC10000A8
:10005000BCC10000BAC10000B8C100000BC600005E
:10006000B4C1000005C40000DAC30000AEC1000046
:10007000ACC10000AAC10000A8C10000A6C10000D8
:10008000A4C10000A2C10000A0C100009EC10000E8
:100090009CC100009AC1000098C1000035C6000054
:1000A00094C1000092C1000090C100008EC1000008
:1000B0008CC100008AC1000088C1000086C1000018
:1000C00084C1000082C1000080C100007EC1000028
:1000D0007CC100007AC1000078C1000076C1000038
:1000E00074C1000089048C047B047F048504C3046C
:1000F000900494049A049E04A204A804AC04B004DE
:10010000C304B604BA04BE0456055B0560056A055F
:100110007405ED057E0586058E059805A205AC05DE
:10012000BB05C505ED05CF05D905E30505A84CCDF3
:10013000B2D44EB93836A9020C50B9918688083C21
:10014000A6AAAA2ABE000000803F00407A10F35AF7
:1001500000A0724E18090010A5D4E80000E8764807
:10016000170000E40B54020000CA9A3B000000E1B3
:10017000F505000080969800000040420F00000046
:10018000A08601000000102700000000E803000026
:1001900000006400000000000A00000000000100F0
:1001A000000000002C76D888DC674F0823DFC1DF11
:1001B000AE59E1B1B796E5E3E453C63AE651997614
:1001C00096E8E6C28426EB898C9B62ED407C6FFC4E
:1001D000EFBC9C9F40F2BAA56FA5F490055A2AF790
:1001E0005C936B6CF9676DC11BFCE0E40D47FEF599
:1001F00020E6B500D0ED902E030094357705008001
:10020000841E080000204E0A000000C80C3333335F
:10021000330F986E12831141EF8D2114893BE655FF
:1002200016CFFEE6DB18D1844B381BF77C1D901DE2
:10023000A4BBE424203284725E228100C9F124EC44
:10024000A1E53D2700002100240027002A002D0001
:100250003000330001010000040107010A01000021
:100260002200250028002B002E003100340002015E
:100270000000050108010B010000200023002600FA
:1002800029002C002F0032000001000003010601AC
:10029000090105050505070508080808020202020C
:1002A0000A0A080804040404010101010101010112
:1002B0000303030303030303040707070C0C0C0CDD
:1002C0000C0C0C0C020202020606060606060606C6
:1002D0000B0B0B0B0B0B0B0B010210202008081053
:1002E00020401020408002010201080402010102A6
:1002F000040810204080804020100804020180047F
:1003000002018040201008040201080402010102D9
:1003100004081020408001020408102040800000E2
:100320000A0B02090C0D0E0807030401000000006F
:1003300000000000000000000000000000000000BD
:10034000000000000000000000001211100000007A
:10035000000000000000000000000000000000009D
:1003600000000000FF15FB1511241FBECFEFD1E2E6
:10037000DEBFCDBF00E00CBF25E0A8E7B3E001C0C1
:100380001D92A239B207E1F713E0A0E0B2E0EAED76
:10039000FCE300E00BBF02C007900D92A837B10745
:1003A000D9F711E0C3EBD1E000E006C021970109C5
:1003B000802FFE010E942F1CC23BD10780E008075E
:1003C000A9F70E94760D0C945C1E1ACEFC01538D89
:1003D000448D252F30E0842F90E0821B930B54171F
:1003E00010F0CF96089501970895FC01918D828DAC
:1003F000981761F0828DDF01A80FB11D5D968C9179
:10040000928D9F5F9F73928F90E008958FEF9FEF83
:100410000895FC01918D828D981731F0828DE80F3F
:10042000F11D858D90E008958FEF9FEF0895FC01F9
:10043000918D228D892F90E0805C9F4F821B9109C6
:100440008F73992708958FE894E0F1DF21E0892BDD
:1004500009F420E0822F0895FC01848DDF01A80FAC
:10046000B11DA35ABF4F2C91848D90E001968F73DC
:100470009927848FA689B7892C93A089B1898C91FB
:1004800080648C93938D848D981306C00288F389C1
:10049000E02D80818F7D80830895EF92FF920F93EE
:1004A0001F93CF93DF93EC0181E0888F9B8D8C8D20
:1004B000981305C0E889F989808185FD23C0F62E4F
:1004C0000B8D10E00F5F1F4F0F731127E02E8C8DE7
:1004D000E8120BC00FB607FCFACFE889F9898081D2
:1004E00085FFF5CFCE01B8DFF2CF8B8DFE01E80F8F
:1004F000F11DE35AFF4FF0820B8FEA89FB8980815F
:10050000806207C0EE89FF896083E889F98980816C
:100510008064808381E090E0DF91CF911F910F9103
:10052000FF90EF900895CF93DF93EC01888D88239F
:10053000C1F0EA89FB89808185FD05C0A889B98958
:100540008C9186FD0EC00FB607FCF5CF808185FF2C
:10055000F2CFA889B9898C9185FFEDCFCE017CDFE0
:10056000E8CFDF91CF91089580E090E0892B19F0DA
:100570006ADF811125C080E090E0892B41F080E0A6
:1005800090E0892B21F00E94000081111CC080E0C6
:1005900090E0892B41F080E090E0892B21F00E94CF
:1005A0000000811113C080E090E0892BA1F080E071
:1005B00090E0892B81F00E94000081110AC008950B
:1005C0000E940000D8CF0E940000E1CF0E940000EE
:1005D000EACF0C94000008953FB7F89480911E0470
:1005E00090911F04A0912004B091210426B5A89BEE
:1005F00005C02F3F19F00196A11DB11D3FBFBA2FB5
:10060000A92F982F8827820F911DA11DB11DBC0114
:10061000CD0142E0660F771F881F991F4A95D1F7D9
:10062000089585ED8093BC008091BC0084FDFCCFD3
:1006300010926A0408954091F403262F30E0240FAD
:10064000311D21323105DCF420916A042430C9F4D3
:10065000FC0180E090E0861758F43091F40321917A
:10066000DC01AE52BC4FA30FB11D2C930196F3CF0A
:100670008091F403680F6093F40380E0089581E0B3
:10068000089582E008950895E09123048091220462
:10069000E81730F4F0E0EC5DFB4F808190E00895C6
:1006A0008FEF9FEF08959091230480912204981773
:1006B00050F4E92FF0E0EC5DFB4F208130E09F5FCC
:1006C0009093230402C02FEF3FEFC901089580915A
:1006D000220490E020912304821B91090895CF9277
:1006E000DF92EF92FF920F931F93CF93DF937C01E2
:1006F000262F972F8A0180916B04882391F0C62FB3
:10070000D72F6E01C40ED51ECC15DD0569F0699199
:10071000D701ED91FC910190F081E02DC701199571
:10072000F3CF642F822F87DFC801DF91CF911F9114
:100730000F91FF90EF90DF90CF900895CF93DF93CC
:100740001F92CDB7DEB7698320916B042223D1F0CD
:1007500020918E04203240F021E030E0FC01338310
:10076000228380E090E014C080916C04E82FF0E0D8
:10077000E359FB4F998190838F5F80936C04809342
:100780008E0404C061E0CE01019655DF81E090E067
:100790000F90DF91CF910895089580E090E0089543
:1007A0000E94481EEF92FF920F931F93CF93DF9307
:1007B0008C010E94591AD82FC80101960E94591A1B
:1007C000C82FC80102960E94591AE82EC801039644
:1007D0000E94591AF82EB801635C7C4F8FE894E0B0
:1007E0000E94640D8D2F0E944F0D8C2F0E944F0D83
:1007F0008E2D0E944F0D8F2D0E944F0D6C2F70E09B
:10080000762F66276D0F711D072E000C880B990B34
:10081000DF91CF911F910F91FF90EF9008951F925C
:100820000F920FB60F9211240BB60F922F933F9396
:100830004F935F936F937F938F939F93AF93BF93E8
:10084000EF93FF938FE894E007DEFF91EF91BF9164
:10085000AF919F918F917F916F915F914F913F9158
:100860002F910F900BBE0F900FBE0F901F901895F9
:100870001F920F920FB60F9211240BB60F922F9367
:100880008F939F93EF93FF93E0919F04F091A004C7
:100890008081E091A504F091A60482FD12C09081B0
:1008A0008091A8048F5F8F732091A904821751F063
:1008B000E091A804F0E0E157FB4F958F8093A804E6
:1008C00001C08081FF91EF919F918F912F910F90A7
:1008D0000BBE0F900FBE0F901F90189590E0FC017B
:1008E0003197E231F10508F04EC08827EE58FF4FEE
:1008F0008F4F0C942F1C809180008F7703C08091C4
:1009000080008F7D80938000089580918000877F94
:10091000F9CF84B58F7702C084B58F7D84BD0895EB
:100920008091B0008F7703C08091B0008F7D80935D
:10093000B0000895809190008F7707C0809190005B
:100940008F7D03C080919000877F809390000895F1
:100950008091A0008F7707C08091A0008F7D03C099
:100960008091A000877F8093A0000895809120014E
:100970008F7707C0809120018F7D03C08091200177
:10098000877F8093200108951F93CF93DF93282FB3
:1009900030E0F901E25EFC4F8491F901E852FD4F2D
:1009A000D491F901EE56FD4FC491CC23C1F0162F1E
:1009B000811194DFEC2FF0E0EE0FFF1FE25AFD4FA4
:1009C000A591B4918FB7F894111105C09C91ED2FAA
:1009D000E095E92302C0EC91ED2BEC938FBFDF9102
:1009E000CF911F910895CF93DF9390E0FC01E852DF
:1009F000FD4F2491FC01EE56FD4F8491882361F157
:100A000090E0880F991FFC01EC5BFD4FC591D491DC
:100A1000FC01E25AFD4FA591B491611109C09FB745
:100A2000F8948881209582238883EC912E230BC033
:100A3000623061F49FB7F8943881822F80958323C8
:100A40008883EC912E2B2C939FBF06C08FB7F89410
:100A5000E8812E2B28838FBFDF91CF9108951F93BC
:100A6000CF93DF93182FEB0161E0BDDF209711F4E6
:100A700060E004C0CF3FD10531F461E0812FDF9108
:100A8000CF911F9181CFE12FF0E0E25EFC4FE49126
:100A90004E2F50E0FA013197E231F10508F09DC088
:100AA0008827EC57FF4F8F4F0C942F1C84B580681C
:100AB00084BDC7BD97C084B5806284BDC8BD92C0E7
:100AC00080918000806880938000D0938900C093DB
:100AD000880088C080918000806280938000D093DD
:100AE0008B00C0938A007EC08091800088608093D4
:100AF0008000D0938D00C0938C0074C08091B000B2
:100B000080688093B000C093B3006CC08091B00047
:100B100080628093B000C093B40064C08091900064
:100B2000806880939000D0939900C09398005AC039
:100B300080919000806280939000D0939B00C0933E
:100B40009A0050C080919000886080939000D0936C
:100B50009D00C0939C0046C08091A0008068809357
:100B6000A0008091A0008F7B8093A000D093A9006B
:100B7000C093A80037C08091A00080628093A0003D
:100B8000D093AB00C093AA002DC08091A0008860D4
:100B90008093A000D093AD00C093AC0023C080919F
:100BA0002001806880932001D0932901C0932801FF
:100BB00019C080912001806280932001D0932B0185
:100BC000C0932A010FC0809120018860809320018A
:100BD000D0932D01C0932C0105C0C038D1050CF075
:100BE0004CCF46CFDF91CF911F9108958F929F9266
:100BF000AF92BF92CF92DF92EF92FF926B017C0196
:100C0000EBDC4B015C01C114D104E104F104E9F017
:100C1000E3DCDC01CB0188199909AA09BB09883EEC
:100C20009340A105B10578F321E0C21AD108E1088B
:100C3000F10888EE880E83E0981EA11CB11CC11437
:100C4000D104E104F10421F7DECFFF90EF90DF90B3
:100C5000CF90BF90AF909F908F9008952FB7F8944A
:100C600060911A0470911B0480911C0490911D04E2
:100C70002FBF08951F920F920FB60F9211242F933A
:100C80003F938F939F93AF93BF9380911A0490915A
:100C90001B04A0911C04B0911D043091190423E0A1
:100CA000230F2D3720F40196A11DB11D05C026E8A4
:100CB000230F0296A11DB11D2093190480931A04DD
:100CC00090931B04A0931C04B0931D0480911E04F8
:100CD00090911F04A0912004B09121040196A11DC0
:100CE000B11D80931E0490931F04A0932004B09321
:100CF0002104BF91AF919F918F913F912F910F90C0
:100D00000FBE0F901F9018951F920F920FB60F9263
:100D100011240BB60F922F933F934F935F936F93D2
:100D20007F938F939F93AF93BF93EF93FF938091A4
:100D3000B900887F803609F49CC068F5883209F4D0
:100D40005BC090F4803109F454C038F4882309F46E
:100D5000F6C0883009F44DC0F5C0883109F44CC0A4
:100D6000803209F45DC0EEC0803409F468C048F4F4
:100D7000803309F455C0883309F0E4C080936804D7
:100D8000D8C0803509F44FC0883509F45DC0883477
:100D900009F0D8C0D6C0883909F4C7C0A8F488378C
:100DA00009F467C038F4883609F463C0803709F461
:100DB00060C0C8C0883809F4B8C0803909F45FC081
:100DC000803809F0BFC05BC0803B09F486C038F4AE
:100DD000803A09F466C0883A09F47FC0B3C0803C09
:100DE00009F4A7C0883C09F4A4C0883B09F48AC070
:100DF000A9C08091450410C0909167048091660459
:100E0000981770F5E091670481E08E0F8093670476
:100E1000F0E0EA5BFB4F80818093BB0085EC86C0ED
:100E2000809368048EC0E091670481E08E0F809308
:100E300067048091BB00F0E0EA5BFB4F80839091F8
:100E40006704809166046EC0E091670481E08E0FB4
:100E5000809367048091BB00F0E0EA5BFB4F8083E6
:100E60008091690481116DC081E08093440484EA1B
:100E700061C083E080936A0410921804CFCF809100
:100E80001804803208F051C0E091180481E08E0F00
:100E9000809318048091BB00F0E0E850FC4F808301
:100EA000BDCF85EC8093BC0010926A048091180439
:100EB000803230F4E0911804F0E0E850FC4F1082EA
:100EC0006091180470E0E091F603F091F70388EF69
:100ED00093E019951092180435C084E080936A0459
:100EE0001092F5031092F403E091F203F091F303F2
:100EF00019958091F403811105C081E08093F4037A
:100F00001092D203E091F50381E08E0F8093F503F8
:100F1000F0E0EE52FC4F80818093BB009091F5038E
:100F20008091F403981708F479CF85E88093BC008A
:100F300009C085EC8093BC0010926A0403C0109233
:100F400068046FDBFF91EF91BF91AF919F918F91FB
:100F50007F916F915F914F913F912F910F900BBEB9
:100F60000F900FBE0F901F901895CF92DF92EF92C7
:100F7000FF926B017C010E94611B82E070DDC092D8
:100F8000A803D092A903E092AA03F092AB03FF90CA
:100F9000EF90DF90CF9008958F929F92AF92BF9283
:100FA000CF92DF92EF92FF924B015C01C0908005DF
:100FB000D0908105E0908205F0908305A70196010D
:100FC00060E070E08FE793E40E94911AA50194011C
:100FD0000E94A519A70196010E94921AFF90EF9016
:100FE000DF90CF90BF90AF909F908F900895CF9259
:100FF000DF92EF92FF926A017B0182309105F1F05E
:101000004CF40197C1F5CB01BA01FF90EF90DF904E
:10101000CF90ABCF8330910501F1049761F5CB01FF
:10102000BA010E94611B85E01ADDC092B403D09220
:10103000B503E092B603F092B7031DC0CB01BA012D
:101040000E94611B83E00BDDC092AC03D092AD0324
:10105000E092AE03F092AF030EC0CB01BA010E9442
:10106000611B84E0FCDCC092B003D092B103E0923B
:10107000B203F092B303FF90EF90DF90CF9008950A
:1010800080E090E08FDB6093800370938103809316
:1010900082039093830384E090E084DB60937C037D
:1010A00070937D0380937E0390937F0388E090E0AC
:1010B00079DB609378037093790380937A0390933C
:1010C0007B0308954F925F926F927F928F929F92CF
:1010D000AF92BF92CF92DF92EF92FF920F931F9346
:1010E000CF93DF9300D01F92CDB7DEB78C016A019A
:1010F0007B01BB2777FDBA95A72F962F852F898374
:101100009A83AB83BC832B01772457FC7094672CA4
:10111000872E9924AA24BB24642FC8010E94611A37
:101120006981C80101960E94611A642DC801029666
:101130000E94611A682DC80103960E94611AB801C5
:10114000655A7C4F8FE894E0BFD4F7FE14C0E0915D
:101150008F04F09190040190F081E02D6DE28FE812
:1011600094E0199544275527BA014C195D096E0979
:101170007F092AE003C02AE0B701A6018FE894E0C6
:1011800046D463E472E08FE894E017D48C2D87D4C2
:10119000898185D4842D83D4882D0F900F900F9052
:1011A0000F90DF91CF911F910F91FF90EF90DF9003
:1011B000CF90BF90AF909F908F907F906F905F90F7
:1011C0004F906DC44F925F926F927F928F929F92D9
:1011D000AF92BF92CF92DF92EF92FF9281E0809325
:1011E0006B0488E680938D0410926C0410928E0438
:1011F00083E490E013D216D272D284E795E053DAFA
:10120000F82E84E795E04FDA812C912C9F2C8829C9
:1012100099294C01990FAA08BB088092CE0390929D
:10122000CF03A092D003B092D10384E795E03BDADC
:10123000F82E84E795E037DA412C512C5F2C842975
:1012400095292C01990F660877084092CA0350929D
:10125000CB036092CC037092CD0384E795E023DA50
:10126000F82E84E795E01FDAC12CD12CDF2C8C29D5
:101270009D296C01990FEE08FF08C092C603D09219
:10128000C703E092C803F092C903C501B4010E94EC
:10129000461920E030E043E053E40E94F91A6093DD
:1012A0009C0370939D0380939E0390939F03C301BF
:1012B000B2010E94461920E030E043E053E40E946E
:1012C000F91A6093A0037093A1038093A2039093F3
:1012D000A303C701B6010E94461920E030E043E0B5
:1012E00053E40E94F91A6093A4037093A5038093BA
:1012F000A6039093A703FF90EF90DF90CF90BF904D
:10130000AF909F908F907F906F905F904F900895D7
:10131000CF92DF92EF92FF920F931F9381E0809321
:101320006B0488E680938D0410926C0410928E04F6
:101330008BE390E073D176D1D2D184E795E0B3D935
:10134000182F84E795E0AFD920E030E0312F822BD1
:10135000932B092E000CAA0BBB0B80938C0390934C
:101360008D03A0938E03B0938F0384E795E09BD900
:10137000182F84E795E097D920E030E0312F822BB9
:10138000932B092E000CAA0BBB0B80938803909320
:101390008903A0938A03B0938B0384E795E083D9F4
:1013A000182F84E795E07FD9C12CD12CD12E8C2920
:1013B0009D296C01990FEE08FF08C0928403D0921A
:1013C0008503E0928603F092870380918C039091CD
:1013D0008D03A0918E03B0918F0300918003109133
:1013E00081032091820330918303BC01CD01601BF6
:1013F000710B820B930B0E94461920E030E040E80D
:1014000058E30E94A5196093900370939103809311
:101410009203909393038091880390918903A09104
:101420008A03B0918B0300917C0310917D0320917E
:101430007E0330917F03BC01CD01601B710B820BD9
:10144000930B0E94461920E030E040E858E30E94E8
:10145000A5196093940370939503809396039093DA
:101460009703C701B6010E94461920E030E74FE715
:1014700056E40E94921A6B017C016091780370918E
:10148000790380917A0390917B030E9446199B0116
:10149000AC01C701B6010E94911A20E030E040E89B
:1014A00058E30E94A5196093980370939903809361
:1014B0009A0390939B031F910F91FF90EF90DF9001
:1014C000CF9008950895CF92DF92EF92FF920F93FD
:1014D0001F93CF93DF936C017A018B01C0E0D0E0C2
:1014E000CE15DF0589F0D8016D918D01D601ED9102
:1014F000FC910190F081E02DC6011995892B11F422
:101500007E0102C02196ECCFC701DF91CF911F91E0
:101510000F91FF90EF90DF90CF9008950F931F935E
:10152000CF93DF93EC0188819981009729F02A817C
:101530003B812617370788F48B016F5F7F4F0E942E
:10154000641D009761F0998388831B830A832C8133
:101550003D81232B11F4FC01108281E001C080E069
:10156000DF91CF911F910F910895CF93DF93EC01FD
:1015700088819981009711F00E94CC1C19821882F1
:101580001D821C821B821A82DF91CF910895EF92F7
:10159000FF920F931F93CF93DF93EC017B018A019E
:1015A000BA01BCDF811103C0CE01DFDF07C01D839C
:1015B0000C83B701888199810E94551ECE01DF916D
:1015C000CF911F910F91FF90EF900895EFE8F4E015
:1015D000A089B18982E08C93A485B5851C92A685EB
:1015E000B78580E18C93108EA489B58986E08C93B1
:1015F000A289B3898C9180618C93A289B3898C91E3
:1016000088608C93A289B3898C9180688C930288BE
:10161000F389E02D80818F7D80830895682F84E792
:1016200095E08CC820918E0490918D04213208F0B1
:101630004AC080916A048111FCCF32E030936A0481
:1016400031E0309369043FEF3093680410926704EF
:1016500020936604ADE6B4E046E454E0FA013E2F80
:10166000341B321718F43D913193F9CF1092450491
:1016700020914504990F922B909345049091440436
:10168000913061F410924404909145049093BB0012
:101690009091BC0093FDF8CF95EC01C095EE90932E
:1016A000BC0090916A049230E1F3909168049F3FEE
:1016B00079F080916804803241F080916804803331
:1016C00031F084E005C081E003C082E001C083E026
:1016D00010926C0410928E0410926B040895809105
:1016E0006A048111FCCF81E080936A0480936904CD
:1016F0009FEF909368041092670495E090936604BE
:101700008093450480914504806D809345048091C9
:101710004404813061F41092440480914504809324
:10172000BB008091BC0083FDF8CF85EC01C085EE45
:101730008093BC0080916A048130E1F3809167045A
:10174000863018F48091670401C086E0A6E4B4E016
:1017500024E234E0F9019E2F921B981718F49D9112
:101760009193F9CF109223048093220408950F934C
:101770001F9374DA6093970470939804809399048C
:1017800090939A04E0918F04F09190040284F38581
:10179000E02D8FE894E0199597FF1EC05FDA009165
:1017A0009704109198042091990430919A04DC01D7
:1017B000CB01801B910BA20BB30B009193041091F2
:1017C0009404209195043091960480179107A20704
:1017D000B307C0F28FEF9FEF1F910F910895CF9342
:1017E000DF93E6E2F3E08491E0EEF2E0D491EAE9FF
:1017F000F2E0C491CC2389F0811170D8EC2FF0E095
:10180000EE0FFF1FE858FD4FA591B491EC91ED2329
:1018100081E090E021F480E002C080E090E0DF9180
:10182000CF910895EF92FF920F931F93CF93DF9381
:10183000FC01248135816115710511F480E018C027
:1018400041155105A1F07B01EC018A01020F131F24
:10185000B80164DE882391F3288139818C819D81D0
:10186000B701820F931F0E94551E1D830C8381E0D8
:10187000DF91CF911F910F91FF90EF900895CF933B
:10188000DF93EC016115710559F0FB010190002017
:10189000E9F73197AF01461B570BC4DF811102C036
:1018A000CE0163DECE01DF91CF910895CF93DF9318
:1018B000EC01FB014481558160817181B3DF8111AD
:1018C00002C0CE0152DECE01DF91CF910895CF93B9
:1018D000DF93EC016115710551F0FB0101900020CF
:1018E000E9F73197AF01461B570B51DE01C03DDED2
:1018F000CE01DF91CF910895FC01808191810C94FC
:10190000CC1CEF92FF920F931F93CF93DF93CDB731
:10191000DEB7A1970FB6F894DEBF0FBECDBF7C0136
:10192000CB01BA01F7011182108213821282158253
:10193000148242E0420F8E010F5F1F4F0E94681613
:10194000BC01C701C4DFA1960FB6F894DEBF0FBE7D
:10195000CDBFDF91CF911F910F91FF90EF90089530
:10196000FB01DC0111961C921E9213961C921E9292
:10197000129715961C921E9214978617970741F09E
:10198000608171816115710519F044815581FFCD28
:101990000895FC0111821082138212821582148232
:1019A0006115710549F0FB0101900020E9F73197BD
:1019B000AF01461B570BEBCD08956115710579F00A
:1019C000FB0101900020E9F73197AF01461B570B4F
:1019D000DC01ED91FC910280F381E02D199480E00F
:1019E00090E00895CF93DF93FC014481558160819D
:1019F00071818FE894E067DDEC0163E472E08FE8C9
:101A000094E0DBDF8C0F9D1FDF91CF9108954F9203
:101A10005F926F927F92EF92FF920F931F93CF93FB
:101A2000DF93CDB7DEB7A1970FB6F894DEBF0FBE38
:101A3000CDBF7C01FA01CB0119A2223008F42AE0C3
:101A40008E010F5D1F4F422E512C612C712CBF0156
:101A5000A30192010E946F1AF901CA0101501109F4
:101A60006A3014F4605D01C0695CD8016C93232B6B
:101A7000242B252B61F7B801C7019FDFA1960FB674
:101A8000F894DEBF0FBECDBFDF91CF911F910F91B4
:101A9000FF90EF907F906F905F904F900895CF935D
:101AA000DF93482F50E060E070E02AE08FE894E098
:101AB000AEDFEC0163E472E08FE894E07EDF8C0F30
:101AC0009D1FDF91CF9108950F931F93CF93DF93C5
:101AD000EC0173DF8C0163E472E0CE016EDF800FF6
:101AE000911FDF91CF911F910F910895CF93DF93B5
:101AF000CDB7DEB7CF54D1090FB6F894DEBF0FBE15
:101B0000CDBF789484B5826084BD84B5816084BD86
:101B100085B5826085BD85B5816085BD80916E008B
:101B2000816080936E0010928100809181008260BC
:101B300080938100809181008160809381008091F9
:101B400080008160809380008091B10084608093E8
:101B5000B1008091B00081608093B00080919100CD
:101B600082608093910080919100816080939100C8
:101B7000809190008160809390008091A1008260AC
:101B80008093A1008091A10081608093A100809149
:101B9000A00081608093A0008091210182608093E9
:101BA0002101809121018160809321018091200198
:101BB00081608093200180917A00846080937A0014
:101BC00080917A00826080937A0080917A008160AF
:101BD00080937A0080917A00806880937A001092D6
:101BE000C10010927005109271051092720510924A
:101BF000730510922E0510922F0510923005109249
:101C0000310568EB7BE080E090E00E94F6058FE80C
:101C100094E090936F0580936E05D8DC1FD8609395
:101C20002E0570932F05809330059093310564E362
:101C300072E080916E0590916F05BFDE6AE070E002
:101C400080E090E00E94F60511E010934205BEDCB2
:101C5000109223041092220410926C0410928E04AD
:101C600010926A04109369041092440461E084E1C4
:101C70000E94C40461E085E10E94C4048091B9001F
:101C80008E7F8093B9008091B9008D7F8093B900D9
:101C900088E48093B80085E48093BC0061E089E02B
:101CA0000E94F30461E082E00E94F30461E083E0BB
:101CB0000E94F30461E084E00E94F30461E085E0A7
:101CC0000E94F30460E088E00E94F30410936B0428
:101CD00008E600938D0410926C0410928E048BE63B
:101CE00090E09CDC80E090E099DC9CDC10936B043D
:101CF00000938D0410926C0410928E048BE190E09E
:101D00008DDC80E090E08ADC8DDC10936B04009326
:101D10008D0410926C0410928E048CE190E07EDCB5
:101D200080E090E07BDC7EDCABD90E942E06672B46
:101D3000682B692B41F40E942E06623071058105E3
:101D4000910508F4FDC00E942E066093C2037093B3
:101D5000C3038093C4039093C5030091BE03109105
:101D6000BF032091C0033091C10360177107820740
:101D7000930740F46093BE037093BF038093C00346
:101D80009093C1030091BE031091BF032091C00343
:101D90003091C1036B017C01C01AD10AE20AF30A37
:101DA000970186010A3F11052105310508F4C8C0D5
:101DB0006093BE037093BF038093C0039093C103ED
:101DC00084EF91E0A0E0B0E080933A0590933B056A
:101DD000A0933C05B0933D0510923E0510923F053F
:101DE0001092400510924105809132059091330583
:101DF000A0913405B0913505809336059093370551
:101E0000A0933805B09339050E942E0660933205E1
:101E10007093330580933405909335050E942E0608
:101E200060932E0570932F058093300590933105B4
:101E30000E942E066B017C0166E472E080916E05C3
:101E400090916F05BADD2AE041E050E060E070E07B
:101E500080916E0590916F05DADD6DE472E08091FE
:101E60006E0590916F05A9DD2AE0B701A60180916A
:101E70006E0590916F05CBDD6FE472E080916E0589
:101E800090916F059ADD8091320590913305A09174
:101E90003405B0913505B701A601481B590B6A0BF3
:101EA0007B0B2AE080916E0590916F05B0DD6FE4A9
:101EB00072E080916E0590916F057FDD4091320553
:101EC0005091330560913405709135058091360548
:101ED00090913705A0913805B0913905481B590BF1
:101EE0006A0B7B0B2AE080916E0590916F058FDD68
:101EF00061E572E080916E0590916F055EDD0E9454
:101F00002E06AB01BC012AE080916E0590916F0511
:101F10007EDD63E572E080916E0590916F05D4DD02
:101F200062E070E080E090E00E94F6050E942E06DC
:101F30006093320570933305809334059093350593
:101F40000091BC031091BD034ADC0817190771F01A
:101F500046DC9093BD038093BC03892B39F46AE57A
:101F600072E08FE894E0B0DD1092010280910102EE
:101F70008111D0C0812C912C5401412C512C320163
:101F8000C12CD12C760100E010E061E089E00E94D4
:101F9000C404BED980918C0390918D03A0918E03CF
:101FA000B0918F03C80ED91EEA1EFB1E80918803D4
:101FB00090918903A0918A03B0918B03480E591E1A
:101FC0006A1E7B1E8091840390918503A0918603F5
:101FD000B0918703880E991EAA1EBB1EF3D81BA2C0
:101FE0001AA21DA21CA21FA21EA24AE0BE016F5F80
:101FF0007F4F88EE93E08BD6BE016F5F7F4FCE019F
:10200000829665DC19A618A61BA61AA61DA61CA6F4
:102010004AE0BE016F5F7F4FC80179D6BE016F5F96
:102020007F4FCE01889653DC68E672E0CE010196C0
:10203000B0DCBE01685D7F4FCE01019637DC67E9F9
:1020400072E01DDCBE016E5D7F4F30DC66E672E043
:1020500016DCC8DCCE0101964FDCCE0188964CDC44
:10206000CE01829649DC0F5F1F4F083E93E01907AF
:1020700009F08BCFC701B60128EE33E040E050E015
:102080000E94131CBA01A90140938003509381035D
:10209000609382037093830380E090E013D8C301C0
:1020A000B20128EE33E040E050E00E94131CBA0178
:1020B000A90140937C0350937D0360937E0370934A
:1020C0007F0384E090E00E946208C501B40128EE1D
:1020D00033E040E050E00E94131CBA01A901409394
:1020E00078035093790360937A0370937B0388E0BD
:1020F00090E00E9462080E94400860EA72E08FE867
:1021000094E0E2DC81E08093010260E089E00E94DB
:10211000C4046EC5FDD856D88FE894E00E9417021B
:10212000892B09F450C065E472E0CE01019631DCE0
:102130001EDB97FD0BC08AA31BA241E050E0BE014D
:102140006E5D7F4FCE0101966DDBF2CF80918805E9
:10215000909189050097C9F069817A8161157105AF
:1021600091F040918A0550918B052D813E81421757
:10217000530748F00E94551E8D819E8190938D05D6
:1021800080938C0518C00E94CC1C89819A81909301
:102190008905809388058B819C8190938B05809322
:1021A0008A058D819E8190938D0580938C051A827E
:1021B00019821C821B821E821D82CE0101969CDB2D
:1021C00088E895E00FDC80910002882309F48DC037
:1021D0000E942E066B017C016093B8037093B903D3
:1021E0008093BA039093BB032091840530918505B9
:1021F0004091860550918705609180057091810519
:1022000080918205909183050E94CB1B18163CF5A6
:10221000C701B6010E94441920E030E048EC53E4C5
:102220000E94F91A0E94F61A20E030E040E85FE3CD
:102230000E94921A20E030E040E05FE30E94A5197E
:1022400020E030E04FE753E40E94A5196093800539
:1022500070938105809382059093830510C0C12CF3
:10226000D12C80EAE82E81E4F82EC0928005D0922D
:102270008105E0928205F0928305109200020E948F
:102280002E061BA21AA21DA21CA21FA21EA22AE099
:10229000AE014F5F5F4F45D5BE016F5F7F4FCE01EF
:1022A000829615DB409180055091810560918205F1
:1022B0007091830522E0CE01019623DB66EB72E08C
:1022C000CE01889666DBBE016F5F7F4FCE01889698
:1022D000EDDA6AEF72E0D3DABE016E5D7F4FE6DAC7
:1022E0006EEC72E0CCDA7EDB77C00E942E061BA279
:1022F0001AA21DA21CA21FA21EA22AE0AE014F5FBD
:102300005F4F0FD5BE016F5F7F4FCE018296DFDA40
:102310004091B4035091B5036091B6037091B70337
:1023200022E0CE010196EDDA4091B0035091B10365
:102330006091B2037091B30322E0CE018896E1DA96
:102340004091AC035091AD036091AE037091AF0327
:1023500022E0CE018E96D5DA4091A8035091A903D0
:102360006091AA037091AB0322E0CE01C496C9DA52
:1023700067ED72E0CE01CA960CDBBE016C5C7F4F4C
:10238000CE01CA9693DA64EE72E079DABE01625D3C
:102390007F4F8CDA6BEE72E072DABE01685D7F4FC0
:1023A00085DA62EF72E06BDABE016F5F7F4F7EDA33
:1023B00069EF72E064DABE016E5D7F4F77DA6EEC32
:1023C00072E05DDA0FDBCE01CA9696DACE01C496D2
:1023D00093DACE018E9690DACE0188968DDACE0110
:1023E00001968ADACE01829687DA40909003509067
:1023F0009103609092037090930320E030E0A90174
:10240000C301B2010E94CB1B73016201181624F0B4
:10241000F7FAF094F7F8F094809194039091950373
:10242000A0919603B091970360968CAF9DAFAEAF2D
:10243000BFAF609720E030E0A901BC01CD010E9450
:10244000CB1B60968CAC9DACAEACBFAC6097181645
:1024500024F0B7FAB094B7F8B0942FE632E143E035
:102460005CEBC301B2010E94CB1B18160CF051C0EB
:102470002FE632E143E05CE3C301B20101D787FFFD
:1024800048C02FE632E143E05CEB60966CAD7DAD79
:102490008EAD9FAD60970E94CB1B1816D4F52FE62A
:1024A00032E143E05CE360966CAD7DAD8EAD9FADF7
:1024B0006097E6D687FF2DC06091800570918105F9
:1024C00080918205909183050E94B5074091800517
:1024D00050918105609182057091830582E090E0C2
:1024E0000E94F70740918005509181056091820517
:1024F0007091830583E090E00E94F707409180058A
:1025000050918105609182057091830584E090E08F
:1025100009C220E030E0A90160919803709199030D
:1025200080919A0390919B030E94CB1B18160CF08C
:1025300010C22FE632E143E05CE3C301B2010E9426
:10254000CB1B18160CF0F5C02FE632E143E05CEB34
:1025500060966CAD7DAD8EAD9FAD609791D687FFD7
:102560006EC020E030E040E85FE3C301B20188D6EE
:1025700087FF65C020E030E040E85FEB60966CAD1F
:102580007DAD8EAD9FAD60970E94CB1B18160CF0F1
:1025900056C0A5019401C701B6010E94CB1B41E0C2
:1025A00050E018161CF4C701B60102C0C501B40101
:1025B0000E94CC070E94B50740918005509181058B
:1025C000609182057091830583E090E00E94F70797
:1025D000A5019401C701B6010E94CB1B1816BCF4DB
:1025E00044E050E0C501B4010E94CC07AB01BC013E
:1025F00084E090E00E94F70742E050E0C701B60196
:102600000E94CC07AB01BC0182E090E016C042E022
:1026100050E0C701B6010E94CC07AB01BC0182E0CB
:1026200090E00E94F70744E050E0C501B4010E9429
:10263000CC07AB01BC0184E090E00E94F7072FE6D5
:1026400032E143E05CE360966CAD7DAD8EAD9FAD55
:1026500060970E94CB1B18160CF06BC020E030E096
:1026600040E85FE3C301B2010BD687FFE9C020E079
:1026700030E040E85FE360966CAD7DAD8EAD9FAD20
:102680006097FED587FFDCC0A5019401C701B601A4
:102690000E94CB1B42E050E018161CF4C701B601A3
:1026A00002C0C501B4010E94CC07AB01BC0182E0AD
:1026B00090E00E94F707409180055091810560915C
:1026C00082057091830584E090E00E94F707A501E0
:1026D0009401C701B6010E94CB1B1816ACF443E06D
:1026E00050E0C501B4010E94CC07AB01BC0183E0FE
:1026F00090E00E94F70741E050E0C701B6010E9458
:10270000CC070E94B5079CC041E050E0C701B6016C
:102710000E94CC070E94B50743E050E0C501B40118
:102720000E94CC07AB01BC0183E090E00E94F70758
:1027300087C02FE632E143E05CEBC301B201A0D5D4
:1027400087FF87C02FE632E143E05CE360966CAD23
:102750007DAD8EAD9FAD60970E94CB1B18160CF01F
:1027600081C020E030E040E85FEBC301B2010E948D
:10277000CB1B18160CF076C020E030E040E85FE399
:1027800060966CAD7DAD8EAD9FAD609779D587FFBE
:1027900069C0A5019401C701B601FDD743E050E02F
:1027A00018161CF4C701B60102C0C501B4010E948D
:1027B000CC07AB01BC0183E090E00E94F707609179
:1027C00080057091810580918205909183050E941A
:1027D000B507A5019401C701B601DDD71816BCF4F1
:1027E00042E050E0C501B4010E94CC07AB01BC013E
:1027F00082E090E00E94F70744E050E0C701B60194
:102800000E94CC07AB01BC0184E090E016C044E01C
:1028100050E0C701B6010E94CC07AB01BC0184E0C7
:1028200090E00E94F70742E050E0C501B4010E9429
:10283000CC07AB01BC0182E090E00E94F70712C018
:102840002FE632E143E05CEBC301B20119D587FD0D
:1028500088CF2FE632E143E05CEBC301B20110D533
:1028600087FF77C02FE632E143E05CEB60966CAD0A
:102870007DAD8EAD9FAD609703D587FF6AC020E028
:1028800030E040E85FEBC301B20185D718160CF0C9
:1028900060C020E030E040E85FEB60966CAD7DAD5D
:1028A0008EAD9FAD609777D718160CF052C0A5017A
:1028B0009401C701B6016FD744E050E018161CF42C
:1028C000C701B60102C0C501B4010E94CC07AB012B
:1028D000BC0184E090E00E94F70740918005509190
:1028E0008105609182057091830582E090E00E94ED
:1028F000F707A5019401C701B6014DD71816ACF42E
:1029000041E050E0C501B4010E94CC070E94B50728
:1029100043E050E0C701B6010E94CC07AB01BC0107
:1029200083E090E00E94F70714C043E050E0C70145
:10293000B6010E94CC07AB01BC0183E090E00E948D
:10294000F70741E050E0C501B4010E94CC070E94A6
:10295000B5074091A4035091A5036091A60370911F
:10296000A70322E0CE0101960E94810C4091A003B2
:102970005091A1036091A2037091A30322E0CE01C4
:1029800082960E94810C40919C0350919D0360911E
:102990009E0370919F0322E0CE0188960E94810CD5
:1029A000409198035091990360919A0370919B0311
:1029B00022E0CE018E960E94810C409194035091AA
:1029C0009503609196037091970322E0CE01C4961F
:1029D0000E94810C40919003509191036091920369
:1029E0007091930322E0CE01CA960E94810C6FEF92
:1029F00072E0CE01805C9F4F0E94C90CBE01665CF4
:102A00007F4FCE01805C9F4F0E94560C64E073E0C4
:102A10000E943F0C67E073E00E943F0CBE016C5CBB
:102A20007F4F0E94560C64E073E00E943F0C6CE004
:102A300073E00E943F0CBE01625D7F4F0E94560C06
:102A400064E073E00E943F0C61E173E00E943F0C80
:102A5000BE01685D7F4F0E94560C64E073E00E94E7
:102A60003F0C68E173E00E943F0CBE016E5D7F4F3A
:102A70000E94560C64E073E00E943F0C6FE173E02B
:102A80000E943F0CBE016F5F7F4F0E94560C64E0B6
:102A900073E00E943F0CBC01CE018A5B9F4F0E94F5
:102AA000B00CCE01805C9F4F0E947C0CCE01CA9678
:102AB0000E947C0CCE01C4960E947C0CCE018E96A6
:102AC0000E947C0CCE0188960E947C0CCE018296DE
:102AD0000E947C0CCE0101960E947C0C40919C03CC
:102AE00050919D0360919E0370919F0322E0CE015F
:102AF00001960E94810C4091980350919903609136
:102B00009A0370919B0322E0CE0182960E94810C71
:102B100040919403509195036091960370919703AF
:102B200022E0CE0188960E94810C40919003509142
:102B30009103609192037091930322E0CE018E96EF
:102B40000E94810C66E273E0CE01C4960E94C90C1B
:102B5000BE01625D7F4FCE01C4960E94560C64E0B8
:102B600073E00E943F0C6BE273E00E943F0CBE01D9
:102B7000685D7F4F0E94560C64E073E00E943F0C3A
:102B800061E373E00E943F0CBE016E5D7F4F0E94C7
:102B9000560C64E073E00E943F0C67E373E00E9410
:102BA0003F0CBE016F5F7F4F0E94560CBC01CE01EF
:102BB000CA960E94B00CCE01C4960E947C0CCE0135
:102BC0008E960E947C0CCE0188960E947C0CCE01D1
:102BD00082960E947C0CCE0101960E947C0CCE0154
:102BE000CA960E947C0CCE018A5B9F4F0E947C0C8F
:102BF0000E94B4029AC888E895E00C947C0CEFE837
:102C0000F4E01382128288EE93E0A0E0B0E08483C7
:102C10009583A683B7832CE032E03183208325ECB3
:102C200030E03587248724EC30E03787268720EC96
:102C300030E0318B208B21EC30E0338B228B22EC87
:102C400030E0358B248B26EC30E0378B268B118ED1
:102C5000128E138E148EECE2F5E016821782108627
:102C60001186128613861486158616861786108A94
:102C7000118A128A138A148A158AE4E7F5E013820E
:102C8000128284839583A683B7838EE192E0918339
:102C9000808365E472E088E895E00E94C90C80E0DA
:102CA00090E0A0EAB1E48093840590938505A09319
:102CB0008605B093870580E090E0AFE7B3E48093AA
:102CC000800590938105A0938205B09383050895B4
:102CD000EF920F931F93CF93DF93E80147FD02C05C
:102CE00034E001C034E1E42F440FFF0BF7FF03C0D1
:102CF000F195E195F109E32E022F2E2FAE014BD075
:102D0000CE01DF91CF911F910F91EF900895BB27D6
:102D10004A3031F4992322F4BDE2909581959F4F7A
:102D200022C0BB27FA01A62F621771058105910504
:102D3000330B30FB66F0AA27660F771F881F991F99
:102D4000AA1FA21710F0A21B63953850A9F7A05D27
:102D5000AA3308F0A95DA19336F7B111B19310829F
:102D6000CA017EC2BB27FB015527AA27880F991FDE
:102D7000AA1FA41710F0A41B83955051B9F7A05DAA
:102D8000AA3308F0A95DA193009779F7B111B19327
:102D90001192CB0165C24F925F926F927F929F9288
:102DA000AF92BF92CF92DF92EF92FF920F931F9359
:102DB000CF93DF93CDB7DEB729970FB6F894DEBF78
:102DC0000FBECDBF6A01122FB02E2BE3201720F0CB
:102DD000FF24F394F00E02C0BCE3FB2E0F2D27E07E
:102DE000AE014F5F5F4F64D1AC018981982F99701C
:102DF000913031F0E1FC06C0E0FE06C090E205C073
:102E00009DE203C09BE201C090E0EE2DE07183FFE4
:102E10003CC0911102C083E001C084E0811718F426
:102E2000212F281B01C020E0E1110BC0F601822FE9
:102E300030E2882319F031938150FBCFC20ED11CB0
:102E400020E0992329F0D6019C93F60131966F0179
:102E5000C6010396E2FE0AC03EE4D6013C9341E47B
:102E600011964C93119712963C9306C03EE6F601DC
:102E7000308341E641833283FC01322F40E2332329
:102E800009F442C041933150FACF82FF44C09111FE
:102E900002C083E001C084E0811718F4212F281BB1
:102EA00001C020E0E1110BC0F601822F30E288233F
:102EB00019F031938150FBCFC20ED11C20E0992331
:102EC00029F0D6019C93F60131966F01C601039655
:102ED000E2FE0BC039E4D6013C933EE411963C93EC
:102EE000119736E412963C9307C039E6F601308319
:102EF0003EE6318336E63283FC01322F40E2332353
:102F000019F041933150FBCFFC01E20FF11D10820B
:102F10008EEF9FEFB7C0F1E0911101C0F0E06F2F8D
:102F200070E01416150624F49A012F5F3F4F02C07B
:102F300021E030E0260F371FBB2029F06B2D70E019
:102F40006F5F7F4F02C060E070E0260F371F612F78
:102F500070E0261737071CF4121B212F01C020E058
:102F60003E2D387159F4D601322F60E2332319F027
:102F70006D933150FBCFC20ED11C20E0FF2331F006
:102F8000D6019C93B6016F5F7F4F6B01E1110BC0BF
:102F9000F601922F30E3992319F031939150FBCF32
:102FA000C20ED11C20E09F2D940F3A81782F7071B2
:102FB000A72E84FF03C0313309F49150191624F46D
:102FC000993018F098E001C091E0E42F852F57FF69
:102FD00002C0E0E080E06E2F782FE0E0F0E0AEE2AB
:102FE0009A2E3A01691A71082A01461A570A0B2DBE
:102FF00010E01195019511096F3F8FEF780729F4C3
:10300000D6019C92C60101966C014617570784F0C1
:10301000661677066CF47F01E40CF51CA1E0B0E0C5
:10302000AC0FBD1FEA0EFB1ED7011196BC9002C06B
:1030300090E3B92E615071093196C60101967C0169
:103040006017710724F0D601BC926C01D5CF6417CC
:10305000750741F4363320F4353321F4A11002C052
:1030600081E3B82EF601B082F701822F90E2882327
:1030700019F091938150FBCFF701E20FF11D1082FF
:1030800080E090E029960FB6F894DEBF0FBECDBF6A
:10309000DF91CF911F910F91FF90EF90DF90CF9034
:1030A000BF90AF909F907F906F905F904F900895EA
:1030B000283008F027E03327DA01990F311D87FD0A
:1030C000916000966105710539F432602E5F3D9381
:1030D00030E32A95E1F708959F3F30F0803871057D
:1030E000610509F03C5F3C5F3D93913008F08068DA
:1030F000911DDF93CF931F930F93FF92EF92192FA0
:10310000987F9695E92F96959695E90FFF27EC55B0
:10311000FE4F99273327EE24FF24A701E7010590EE
:103120000894079428F4360FE71EF81E491F511D16
:10313000660F771F881F991F0694A1F705900794C3
:1031400028F4E70EF81E491F561FC11D770F881F70
:10315000991F661F0694A1F70590079428F4F80EAE
:10316000491F561FC71FD11D880F991F661F771F44
:103170000694A1F70590079420F4490F561FC71F26
:10318000D81F990F661F771F881F0694A9F784918F
:103190001095177041F0D695C79557954795F794B8
:1031A000E7941A95C1F7EAE4F1E068941590159157
:1031B00035916591959105907FE27395E118F10A3B
:1031C000430B560BC90BD009C0F7E10CF11E431F8E
:1031D000561FC91FD01D7EF4703311F48A95E6CFB7
:1031E000E894015030F0080F0AF40027021708F4A1
:1031F000202F2395022F7A3328F079E37D932A95A7
:10320000E9F710C07D932A9589F6069497956795FE
:10321000379517951794E118F10A430B560BC90B14
:10322000D00998F023957E9173957A3308F070E376
:103230007C932013B8F77E9170617D9330F0839575
:1032400071E37D9370E32A95E1F71124EF90FF90ED
:103250000F911F91CF91DF91992787FD9095089548
:10326000DC01FC01672F71917723E1F7329704C0ED
:103270007C916D9370836291AE17BF07C8F3089578
:1032800040D008F481E00895E89409C097FB3EF42B
:1032900090958095709561957F4F8F4F9F4F9923A3
:1032A000A9F0F92F96E9BB279395F6958795779521
:1032B0006795B795F111F8CFFAF4BB0F11F460FFE1
:1032C0001BC06F5F7F4F8F4F9F4F16C0882311F039
:1032D00096E911C0772321F09EE8872F762F05C04D
:1032E000662371F096E8862F70E060E02AF09A95E8
:1032F000660F771F881FDAF7880F9695879597F9DD
:103300000895990F0008550FAA0BE0E8FEEF161676
:103310001706E807F907C0F012161306E407F507C9
:1033200098F0621B730B840B950B39F40A2661F03D
:10333000232B242B252B21F408950A2609F4A140E0
:10334000A6958FEF811D811D08950BD078C069D09F
:1033500028F06ED018F0952309F05AC05FC01124F0
:10336000A2C07ED0A0F3959FD1F3950F50E0551FDA
:10337000629FF001729FBB27F00DB11D639FAA27CA
:10338000F00DB11DAA1F649F6627B00DA11D661F19
:10339000829F2227B00DA11D621F739FB00DA11D3A
:1033A000621F839FA00D611D221F749F3327A00DF4
:1033B000611D231F849F600D211D822F762F6A2F90
:1033C00011249F5750408AF0E1F088234AF0EE0F15
:1033D000FF1FBB1F661F771F881F91505040A9F722
:1033E0009E3F510570F014C05EC05F3FECF3983E05
:1033F000DCF3869577956795B795F795E7959F5F89
:10340000C1F7FE2B880F911D9695879597F9089522
:1034100097F99F6780E870E060E008959FEF80EC87
:10342000089500240A94161617061806090608952A
:1034300000240A9412161306140605060895092E90
:103440000394000C11F4882352F0BB0F40F4BF2BFF
:1034500011F460FF04C06F5F7F4F8F4F9F4F08953F
:1034600057FD9058440F551F59F05F3F71F0479535
:10347000880F97FB991F61F09F3F79F0879508951A
:10348000121613061406551FF2CF4695F1DF08C039
:10349000161617061806991FF1CF86957105610556
:1034A00008940895E894BB2766277727CB0197F9FE
:1034B0000895F999FECF92BD81BDF89A992780B5FC
:1034C0000895262FF999FECF1FBA92BD81BD20BD68
:1034D0000FB6F894FA9AF99A0FBE01960895A1E2F0
:1034E0001A2EAA1BBB1BFD010DC0AA1FBB1FEE1F7E
:1034F000FF1FA217B307E407F50720F0A21BB30BC9
:10350000E40BF50B661F771F881F991F1A9469F744
:1035100060957095809590959B01AC01BD01CF01A0
:1035200008955058BB27AA270ED089CF7ADF30F0F4
:103530007FDF20F031F49F3F11F41EF46FCF0EF4C3
:10354000E095E7FB65CFE92F8BDF80F3BA176207C1
:1035500073078407950718F071F49EF5A3CF0EF456
:10356000E0950B2EBA2FA02D0B01B90190010C0193
:10357000CA01A0011124FF27591B99F0593F50F4AB
:10358000503E68F11A16F040A22F232F342F442703
:10359000585FF3CF469537952795A795F0405395FB
:1035A000C9F77EF41F16BA0B620B730B840BBAF0CB
:1035B0009150A1F0FF0FBB1F661F771F881FC2F736
:1035C0000EC0BA0F621F731F841F48F4879577954A
:1035D0006795B795F7959E3F08F0B3CF9395880F01
:1035E00008F09927EE0F9795879508959CD0E3955D
:1035F000C1C00CD024CF1CDF40F013DF30F021F429
:103600005F3F19F005CF51114ECF08CF29DF98F356
:103610009923C9F35523B1F3951B550BBB27AA2753
:1036200062177307840738F09F5F5F4F220F331FC5
:10363000441FAA1FA9F333D00E2E3AF0E0E830D091
:1036400091505040E695001CCAF729D0FE2F27D094
:10365000660F771F881FBB1F261737074807AB0762
:10366000B0E809F0BB0B802DBF01FF2793585F4FD7
:103670002AF09E3F510568F0CBCE15CF5F3FECF3AB
:10368000983EDCF3869577956795B795F7959F5F9C
:10369000C9F7880F911D9695879597F90895E1E0F0
:1036A000660F771F881FBB1F621773078407BA074F
:1036B00020F0621B730B840BBA0BEE1F88F7E095AA
:1036C000089504D06894B111EECE0895D1DE88F04B
:1036D0009F5790F0B92F9927B751A0F0D1F0660FFE
:1036E000771F881F991F1AF0BA95C9F712C0B13019
:1036F00081F0D8DEB1E00895D5CE672F782F8827E6
:10370000B85F39F0B93FCCF3869577956795B39557
:10371000D9F73EF490958095709561957F4F8F4FC6
:103720009F4F08957BCEA4DEE8F3E894E0E0BB274A
:103730009F57F0F02AED3FE049EC06C0EE0FBB0FBB
:10374000661F771F881F28F0B23A62077307840745
:1037500028F0B25A620B730B840BE3959A9572F7BB
:10376000803830F49A95BB0F661F771F881FD2F7F9
:10377000904817C0EF93E0FF06C0A2EA2AED3FE0B1
:1037800049EC5FEBE0DE5BDE0F90039401FC9058A8
:10379000ECE2F1E012C0B5DD08F48FEF08959F3F31
:1037A00031F0915020F4879577956795B795880FFC
:1037B000911D9695879597F908959F938F937F9381
:1037C0006F93FF93EF939B01AC01BFDDEF91FF91EE
:1037D00005D02F913F914F915F91B7CDDF93CF935C
:1037E0001F930F93FF92EF92DF927B018C016894FD
:1037F00005C0DA2EEF01B5DDFE01E894A591259113
:10380000359145915591AEF3EF019DDEFE01970193
:10381000A801DA9479F7DF90EF90FF900F911F9154
:10382000CF91DF910895052E97FB16F400940FD0E9
:1038300057FD05D054DE07FC02D046F408C0509571
:103840004095309521953F4F4F4F5F4F089590958C
:103850008095709561957F4F8F4F9F4F0895EE0F24
:10386000FF1F881F8BBF0790F691E02D1994CF930F
:10387000DF938230910510F482E090E0E0919005B2
:10388000F091910520E030E0C0E0D0E0309711F1F8
:103890004081518148175907C0F04817590761F412
:1038A00082819381209719F09B838A832BC0909308
:1038B00091058093900526C02115310519F0421716
:1038C000530718F49A01BE01DF01EF010280F38172
:1038D000E02DDCCF2115310509F1281B390B2430EF
:1038E000310590F412968D919C9113976115710595
:1038F00021F0FB019383828304C090939105809310
:103900009005FD01329644C0FD01E20FF31F819343
:103910009193225031092D933C933AC020918E050A
:1039200030918F05232B41F4209104023091050240
:1039300030938F0520938E0520910202309103026F
:103940002115310541F42DB73EB740910602509143
:103950000702241B350BE0918E05F0918F05E217CD
:10396000F307A0F42E1B3F0B2817390778F0AC01A2
:103970004E5F5F4F2417350748F04E0F5F1F50937F
:103980008F0540938E058193919302C0E0E0F0E0B3
:10399000CF01DF91CF9108950F931F93CF93DF93C2
:1039A000009709F48CC0FC013297138212820091B7
:1039B0009005109191050115110581F42081318147
:1039C000820F931F20918E0530918F05281739079C
:1039D00079F5F0938F05E0938E0571C0D80140E032
:1039E00050E0AE17BF0750F412962D913C911397FB
:1039F000AD012115310509F1D901F3CF9D01DA019E
:103A00003383228360817181860F971F821793070A
:103A100069F4EC0128813981260F371F2E5F3F4F53
:103A2000318320838A819B8193838283452B29F470
:103A3000F0939105E093900542C01396FC93EE93AA
:103A40001297ED01499159919E01240F351FE217FC
:103A5000F30771F480819181840F951F029611966E
:103A60009C938E938281938113969C938E9312974D
:103A7000E0E0F0E0D80112968D919C9113970097A9
:103A800019F0F8018C01F6CF8D919C9198012E5F71
:103A90003F4F820F931F20918E0530918F0528177D
:103AA000390769F4309729F4109291051092900526
:103AB00002C01382128210938F0500938E05DF914E
:103AC000CF911F910F9108956F927F928F929F9245
:103AD000AF92BF92CF92DF92EF92FF920F931F931C
:103AE000CF93DF93EC01009781F4CB01DF91CF916D
:103AF0001F910F91FF90EF90DF90CF90BF90AF900C
:103B00009F908F907F906F90B2CEFC01E60FF71FD1
:103B10009C0122503109E217F30708F4A8C0D9012B
:103B20000D911C91119706171707A8F00530110584
:103B300008F49BC0C80104978617970708F495C03E
:103B400002501109061B170B019311936D937C937F
:103B5000CF0122DF8AC05B01A01AB10A4C01800E9E
:103B6000911EA0919005B091910540E050E0E12CAC
:103B7000F12C109709F44AC0A815B905D1F56D903C
:103B80007C901197630182E0C80ED11CCA14DB043B
:103B900080F1A3014A195B096A0182E0C80ED11CB9
:103BA0001296BC9012971396AC91B5E0CB16D10447
:103BB00040F0B282A38351834083D9016D937C93FB
:103BC0000AC00E5F1F4FC301800F911FF90191833F
:103BD0008083EB2DFA2FE114F10431F0D701139615
:103BE000FC93EE93129741C0F0939105E0939005FA
:103BF0003CC08D919C9111974817590708F4AC016E
:103C00007D0112960D90BC91A02DB3CF80918E05B1
:103C100090918F0588159905E1F446175707C8F468
:103C20008091020290910302009741F48DB79EB7F4
:103C30004091060250910702841B950BE817F90783
:103C4000B0F4F0938F05E0938E05F90171836083E2
:103C50000CC0CB010CDE7C01009749F0A801BE012D
:103C60001BD0CE0199DEC70104C0CE0102C080E0A6
:103C700090E0DF91CF911F910F91FF90EF90DF9037
:103C8000CF90BF90AF909F908F907F906F9008954E
:103C900081E090E0F89410C0FB01DC0102C00190CB
:103CA0000D9241505040D8F70895FB01DC0101907E
:103CB0000D920020E1F7089511E0C3EBD1E000E0A0
:103CC00005C0802FFE01CBDD2196011DC43BD1072D
:0A3CD00080E00807B1F7F894FFCF79
:103CDA000101000092058000000000004D02630A05
:103CEA00E60193021702F5010902000000009E0393
:103CFA006F03CD03430367035303440300007F4369
:103D0A000000A041564D4450565F317C315F564DFC
:103D1A004450560D0A00564D4450455F003A323A17
:103D2A00007C005F564D4450450043616C696272E5
:103D3A006174696E672E2E0052656164696E672030
:103D4A004779726F202620416363656C20666F7223
:103D5A002063616C6962726174696F6E2E204174AE
:103D6A0074656D70742000206F7574206F66200072
:103D7A0046696E69736865642043616C6962726141
:103D8A0074696E67210054616B696E67206F66669D
:103D9A0021202E2E2E2053706565643A2000206D56
:103DAA00696C6C69732E005370656564733A2028D8
:103DBA00313A2000292028323A2000292028333A93
:103DCA002000292028343A200029207C7C20006702
:103DDA00583A20003B200067593A2000675A3A2097
:103DEA0000726F74583A2000726F74593A20007248
:103DFA006F745A3A200050773120005077323A20B7
:103E0A00005077333A20005077343A200023232396
:103E1A002323232323232323232323232323232368
:103E2A00232052454144494E47200023232323237C
:103E3A00232323232323232323232323232323204B
:083E4A00534156494E47200088
:020000023000CC
:10E000000D9489F10D94B2F10D94B2F10D94B2F129
:10E010000D94B2F10D94B2F10D94B2F10D94B2F1F0
:10E020000D94B2F10D94B2F10D94B2F10D94B2F1E0
:10E030000D94B2F10D94B2F10D94B2F10D94B2F1D0
:10E040000D94B2F10D94B2F10D94B2F10D94B2F1C0
:10E050000D94B2F10D94B2F10D94B2F10D94B2F1B0
:10E060000D94B2F10D94B2F10D94B2F10D94B2F1A0
:10E070000D94B2F10D94B2F10D94B2F10D94B2F190
:10E080000D94B2F10D94B2F10D94B2F10D94B2F180
:10E090000D94B2F10D94B2F10D94B2F10D94B2F170
:10E0A0000D94B2F10D94B2F10D94B2F10D94B2F160
:10E0B0000D94B2F10D94B2F10D94B2F10D94B2F150
:10E0C0000D94B2F10D94B2F10D94B2F10D94B2F140
:10E0D0000D94B2F10D94B2F10D94B2F10D94B2F130
:10E0E0000D94B2F141546D656761323536300041AF
:10E0F000726475696E6F206578706C6F72657220DE
:10E1000073746B3530305632206279204D4C530099
:10E11000426F6F746C6F616465723E004875683F52
:10E1200000436F6D70696C6564206F6E203D200048
:10E130004350552054797065202020203D20005FF9
:10E140005F4156525F415243485F5F3D2000415658
:10E1500052204C696243205665723D20004743437C
:10E160002056657273696F6E203D20004350552024
:10E1700049442020202020203D20004C6F7720663D
:10E18000757365202020203D20004869676820665F
:10E190007573652020203D200045787420667573D6
:10E1A00065202020203D20004C6F636B2066757336
:10E1B000652020203D20004D617220203720323024
:10E1C000313300312E362E3800342E332E350056A2
:10E1D00023202020414444522020206F7020636F70
:10E1E00064652020202020696E73747275637469E1
:10E1F0006F6E2061646472202020496E74657272B3
:10E20000757074006E6F20766563746F7200726A49
:10E210006D702020006A6D70200057686174207056
:10E220006F72743A00506F7274206E6F7420737541
:10E2300070706F72746564004D7573742062652030
:10E2400061206C6574746572002000577269747483
:10E25000696E672045450052656164696E672045B7
:10E26000450045452065727220636E743D00504F35
:10E27000525400303D5A65726F2061646472003FF1
:10E280003D43505520737461747300403D454550C3
:10E29000524F4D207465737400423D426C696E6B41
:10E2A000204C454400453D44756D70204545505215
:10E2B0004F4D00463D44756D7020464C415348001B
:10E2C000483D48656C70004C3D4C69737420492F83
:10E2D0004F20506F72747300513D51756974005234
:10E2E0003D44756D702052414D00563D73686F7707
:10E2F00020696E7465727275707420566563746FF0
:10E30000727300593D506F727420626C696E6B00BD
:10E310002A0011241FBECFEFD1E2DEBFCDBF01E046
:10E320000CBF12E0A0E0B2E0EEE1FDEF03E00BBFB6
:10E3300002C007900D92A030B107D9F712E0A0E01B
:10E34000B2E001C01D92AE30B107E1F70F9460F367
:10E350000D948DFE01E20EBF0FEF0DBF11241FBE05
:10E360000D9460F30D9400F020E030E040ED57E0B4
:10E3700005C0FA013197F1F72F5F3F4F2817390792
:10E38000C0F308959C01260F311DC901A0E0B0E043
:10E390002F5F3F4FABBFFC018791882361F08093D3
:10E3A000C6008091C00086FFFCCF8091C0008064D1
:10E3B0008093C000EACF08958DE08093C6008091DD
:10E3C000C00086FFFCCF8091C00080648093C000B5
:10E3D0008AE08093C6008091C00086FFFCCF8091C8
:10E3E000C00080648093C00008950F94C2F10F9420
:10E3F000DCF10895FC019081992359F09093C600B7
:10E400008091C00086FFFCCF8091C0008064809323
:10E41000C0003196992379F70895282F982F929567
:10E420009F70892F805D8A3308F0895F8093C600D2
:10E430008091C00086FFFCCF8091C00080648093F3
:10E44000C000822F8F70982F905D9A3308F0995FEB
:10E450009093C6008091C00086FFFCCF8091C000E1
:10E4600080648093C00008959C01FB01853691056E
:10E470001CF46330710594F0C90164E670E00F94F8
:10E480002EFE605D7F4F6093C6008091C00086FFC6
:10E49000FCCF8091C00080648093C0002B30310598
:10E4A00014F43297B4F0C90164E670E00F942EFEC4
:10E4B0006AE070E00F942EFE605D7F4F6093C600AF
:10E4C0008091C00086FFFCCF8091C0008064809363
:10E4D000C000C9016AE070E00F942EFEC0968093E0
:10E4E000C6008091C00086FFFCCF8091C000806490
:10E4F0008093C00008951F93182F8EE692EE60E07F
:10E500000F94C2F11093C6008091C00086FFFCCF2B
:10E510008091C00080648093C0000F94DCF11F9153
:10E5200008952F923F924F925F926F927F928F92B7
:10E530009F92AF92BF92CF92DF92EF92FF920F9392
:10E540001F93DF93CF93CDB7DEB762970FB6F894E2
:10E55000DEBF0FBECDBF382E622ECA01DB015C01CB
:10E560006D01772420E2222E2E010894411C511CBB
:10E570008BC081E0A81680E0B80681E0C80680E084
:10E58000D80628F0C601AA27BB270F940DF2BB2797
:10E59000AD2D9C2D8B2D0F940DF28A2D0F940DF225
:10E5A0002092C6008091C00086FFFCCF8091C00001
:10E5B00080648093C0009DE29093C6008091C0006B
:10E5C00086FFFCCF8091C00080648093C0002092C1
:10E5D000C6008091C00086FFFCCF8091C00080649F
:10E5E0008093C00019828601750188249924A1E0D6
:10E5F0003A1651F03A1620F0B2E03B1661F409C029
:10E600000BBFF701779007C0C7010F9477FE782EF4
:10E6100002C0F7017080872D0F940DF22092C60082
:10E620008091C00086FFFCCF8091C0008064809301
:10E63000C000872D8052F401EF70F0708F3520F408
:10E64000E40DF51D708204C0E40DF51D8EE280839B
:10E650000894E11CF11C011D111D0894811C911CE2
:10E6600090E18916910409F0C2CF80E190E0A0E02A
:10E67000B0E0A80EB91ECA1EDB1E198AC2010F9493
:10E68000FAF10F94DCF16A94662009F072CF629679
:10E690000FB6F894DEBF0FBECDBFCF91DF911F91B3
:10E6A0000F91FF90EF90DF90CF90BF90AF909F9031
:10E6B0008F907F906F905F904F903F902F90089534
:10E6C0002F923F924F925F926F927F928F929F9282
:10E6D000AF92BF92CF92DF92EF92FF920F931F9370
:10E6E000DF93CF93CDB7DEB7CD53D1400FB6F894BB
:10E6F000DEBF0FBECDBF01E20EBF0FEF0DBF94B75F
:10E70000F894A89514BE80916000886180936000A1
:10E7100010926000789493FF05C0E0910002F091A0
:10E7200001021995279A2F9A8091C00082608093E8
:10E73000C00080E18093C40088E18093C1000000A4
:10E74000EE24FF24870144E0A42EB12CCC24DD2448
:10E7500024C0C5010197F1F70894E11CF11C011DCB
:10E76000111D21E2E2162EE4F20620E0020720E06D
:10E77000120718F031E0C32ED12CC801B70127ECE5
:10E780003BE140E050E00F9441FE611571058105C9
:10E79000910519F485B1805885B98091C00087FD35
:10E7A00003C0C114D104A9F2A6014F5F5F4FC25E3E
:10E7B000DE4F59834883CE51D140C25EDE4F8881FF
:10E7C0009981CE51D140019711F00D9410FEC05D9A
:10E7D000DE4F19821882C053D14060E0C15DDE4F28
:10E7E0001882CF52D14088249924C35DDE4F19820C
:10E7F0001882CD52D140C05EDE4F188219821A8233
:10E800001B82C052D140CE5CDE4F188219821A8220
:10E810001B82C253D140EE24FF2487010BBFF701B6
:10E8200007911691C45CDE4F19830883CC53D14005
:10E830000D940BFEC25EDE4F28813981CE51D1404E
:10E840002130310509F52091C600C25EDE4F1982E4
:10E850001882CE51D14022C02F5F3F4F4F4F5F4FA4
:10E86000213082E138078AE7480780E0580780F0C6
:10E87000C45CDE4FE881F981CC53D140EF5FFF4F9C
:10E8800019F0EE27FF27099420E030E040E050E047
:10E890008091C00087FFE0CF2091C600C35DDE4FAE
:10E8A00048815981CD52D1404F5F5F4FC35DDE4FEC
:10E8B00059834883CD52D140213209F063C64A3092
:10E8C000510508F05FC60894811C911C53E0851621
:10E8D000910409F059C600E010E018C081E280936D
:10E8E000C6008091C00086FFFCCF8091C00080648C
:10E8F0008093C0002F5F3F4F2931310579F70F9486
:10E90000DCF10F5F1F4F0530110519F020E030E0FA
:10E91000E5CF10920A0210920B0210920C02109294
:10E920000D02109206021092070210920802109235
:10E930000902109202021092030210920402109235
:10E9400005028FEE90EE60E00F94F5F180E191EE1C
:10E9500060E00F94C2F18091C00087FFFCCF9091DE
:10E96000C600903608F09F759032B8F09093C600BC
:10E970008091C00086FFFCCF8091C00080648093AE
:10E98000C000A0E2A093C6008091C00086FFFCCF2B
:10E990008091C00080648093C000983409F4D7C18E
:10E9A0009934B8F4923409F459C1933458F490333B
:10E9B00019F1903308F4E3C59F33A1F1903409F0C5
:10E9C000DEC5BDC0953409F470C1963409F0D7C5D1
:10E9D00098C1923509F42BC2933538F49C3409F46C
:10E9E000F5C1913509F0CBC518C2963509F445C279
:10E9F000993509F0C4C567C483E792EE62E00F94CD
:10EA0000F5F110920602109207021092080210927D
:10EA1000090210920A0210920B0210920C0210923C
:10EA20000D0213C18FE792EE62E00F94F5F18FEEC5
:10EA300090EE60E00F94F5F181E291EE60E00F94CA
:10EA4000C2F187EB91EE60E00F94F5F180E391EE77
:10EA500060E00F94C2F184EE90EE60E00F94F5F167
:10EA60008FE391EE60E00F94C2F186E090E061E008
:10EA700070E00F9434F20F94DCF18DE591EE60E0DC
:10EA80000F94C2F189EC91EE60E00F94F5F18EE401
:10EA900091EE60E00F94C2F183EC91EE60E00F9490
:10EAA000F5F18CE691EE60E00F94C2F18EE10F94E7
:10EAB0000DF288E90F940DF281E00F940DF20F949E
:10EAC000DCF18BE791EE60E00F94C2F119E0E0E039
:10EAD000F0E010935700E4918E2F0F940DF20F94F5
:10EAE000DCF18AE891EE60E00F94C2F1E3E0F0E03F
:10EAF00010935700E4918E2F0F940DF20F94DCF1D8
:10EB000089E991EE60E00F94C2F1E2E0F0E0109349
:10EB10005700E4918E2F0F940DF20F94DCF188EAE8
:10EB200091EE60E00F94C2F1E1E0F0E01093570045
:10EB30001491812F0F940DF20F94DCF107CF8BE825
:10EB400092EE62E00F94F5F18BE492EE60E00F94A8
:10EB5000F5F10F94DCF100E010E019C0C8016F2D51
:10EB60000F947FFEFF2031F489E492EE60E00F9471
:10EB7000C2F10BC0F092C6008091C00086FFFCCFAE
:10EB80008091C00080648093C0000F5F1F4FC80158
:10EB900081519F41A0E0B0E0ABBFFC01F790BAE229
:10EBA000FB1621F0E2E000301E07C1F60F94DCF105
:10EBB0000F94DCF187E592EE60E00F94F5F10F948D
:10EBC000DCF1CC24DD2400E010E01EC0C8010F946D
:10EBD00077FEF82E882331F489E492EE60E00F94FA
:10EBE000C2F10BC08093C6008091C00086FFFCCFAD
:10EBF0008091C00080648093C000FE1419F00894D6
:10EC0000C11CD11C0F5F1F4FC80181519F41A0E063
:10EC1000B0E0ABBFFC01E790FAE2EF1621F022E092
:10EC20000030120799F60F94DCF10F94DCF182E6C4
:10EC300092EE60E00F94C2F1C60161E070E00F94C3
:10EC400034F20F94DCF10F94DCF110920202109276
:10EC50000302109204021092050278CE89E992EE26
:10EC600062E00F94F5F1279A2F9A16C02F9880E052
:10EC700090E0E0EDF7E03197F1F7019684369105E9
:10EC8000C1F72F9A80E090E0E0EDF7E03197F1F7DF
:10EC9000019684369105C1F78091C00087FFE6CFC9
:10ECA0008091C00087FFFCCF64C485EA92EE62E0E9
:10ECB0000F94F5F140910202509103026091040219
:10ECC0007091050281E020E10F9491F2809102029F
:10ECD00090910302A0910402B091050280509F4FD1
:10ECE000AF4FBF4F8093020290930302A0930402A0
:10ECF000B093050280509041A040B04008F426CE69
:10ED0000A4CF83EB92EE62E00F94F5F140910602FE
:10ED100050910702609108027091090280E020E1A1
:10ED20000F9491F28091060290910702A09108023F
:10ED3000B091090280509F4FAF4FBF4F80930602A2
:10ED400090930702A0930802B0930902FFCD80ECD4
:10ED500092EE62E00F94F5F183E792EE60E00F949B
:10ED6000F5F18FE792EE60E00F94F5F18BE892EE0B
:10ED700060E00F94F5F189E992EE60E00F94F5F10F
:10ED800085EA92EE60E00F94F5F183EB92EE60E09D
:10ED90000F94F5F180EC92EE60E00F94F5F187ECC2
:10EDA00092EE60E00F94F5F188ED92EE60E00F9442
:10EDB000F5F18FED92EE60E00F94F5F18AEE92EEB0
:10EDC00060E00F94F5F183E093EEBDCD87EC92EE19
:10EDD00062E00F94F5F181E40F947BF282E40F94EA
:10EDE0007BF283E40F947BF284E40F947BF285E45E
:10EDF0000F947BF286E40F947BF287E40F947BF20E
:10EE000088E40F947BF28AE40F947BF28BE40F94F6
:10EE10007BF28CE40F947BF299CD88ED92EE62E068
:10EE20000F94F5F1772473948824992409C48FED05
:10EE300092EE62E00F94F5F140910A0250910B02BC
:10EE400060910C0270910D0282E020E10F9491F22A
:10EE500080910A0290910B02A0910C02B0910D02D8
:10EE600080509F4FAF4FBF4F80930A0290930B0289
:10EE7000A0930C02B0930D0269CD8AEE92EE62E08F
:10EE80000F94F5F184EE90EE60E00F94F5F18FECC5
:10EE900091EE60E00F94F5F1662477244301CC5D98
:10EEA000DE4F19821882C452D140D401C301B695F5
:10EEB000A79597958795CA5DDE4F88839983AA8326
:10EEC000BB83C652D140CC5DDE4FA881B981C4520C
:10EED000D1401196CC5DDE4FB983A883C452D14096
:10EEE000CD0162E070E00F9434F2B0E2B093C6005E
:10EEF0008091C00086FFFCCF8091C0008064809329
:10EF0000C000EDE2E093C6008091C00086FFFCCF18
:10EF10008091C00080648093C000F0E2F093C6004E
:10EF20008091C00086FFFCCF8091C00080648093F8
:10EF3000C000CA5DDE4FE880F9800A811B81C6529D
:10EF4000D140BB27A12F902F8F2D0F940DF2CA5DBA
:10EF5000DE4F8881C652D1400F940DF2B0E2FB2EF5
:10EF6000F092C6008091C00086FFFCCF8091C00067
:10EF700080648093C0000DE30093C6008091C000C0
:10EF800086FFFCCF8091C00080648093C00010E2B7
:10EF90001093C6008091C00086FFFCCF8091C00016
:10EFA00080648093C0008BBEF3012791C65DDE4F65
:10EFB0002883CA52D140A22EBB24CC24DD2408943D
:10EFC000611C711C811C911C8BBEF3018791282E42
:10EFD0003324442455240894611C711C811C911C09
:10EFE0008BBEF3013791C55DDE4F3883CB52D140E4
:10EFF0000894611C711C811C911C8BBEF30147910C
:10F00000C45DDE4F4883CC52D140ADEFEA2EAFEF66
:10F01000FA2EAFEF0A2FAFEF1A2F6E0C7F1C801E57
:10F02000911E142D032DF22CEE24EA0CFB1C0C1D5A
:10F030001D1D0F940DF220E22093C6008091C000A8
:10F0400086FFFCCF8091C00080648093C000C65DC5
:10F05000DE4F8881CA52D1400F940DF230E23093D6
:10F06000C6008091C00086FFFCCF8091C000806404
:10F070008093C000C45DDE4F8881CC52D1400F9494
:10F080000DF240E24093C6008091C00086FFFCCFA5
:10F090008091C00080648093C000C55DDE4F888190
:10F0A000CB52D1400F940DF250E25093C6008091A4
:10F0B000C00086FFFCCF8091C00080648093C000B8
:10F0C0008FEFE8168FEFF80680E0080780E018075A
:10F0D00031F484E092EE60E00F94C2F1DFC0D80119
:10F0E000C7018070907CA070B0708050904CA040A0
:10F0F000B040D1F52FEF3FE340E050E0E222F322B1
:10F1000004231523CA5DDE4FA880B980CA80DB8046
:10F11000C652D140AE0CBF1CC01ED11EAA0CBB1CD7
:10F12000CC1CDD1C8EE092EE60E00F94C2F1BB2798
:10F13000A12F902F8F2D0F940DF28E2D0F940DF285
:10F1400030E23093C6008091C00086FFFCCF8091F2
:10F15000C00080648093C0004EE34093C60080915D
:10F16000C00086FFFCCF87C08EE09EEFA0E0B0E03D
:10F17000E822F9220A231B239CE0E91694E9F90608
:10F1800090E0090790E0190709F088C0C45DDE4FE0
:10F19000A881CC52D140EA2EFF2400E010E0102FCD
:10F1A0000F2DFE2CEE24C55DDE4FB881CB52D14031
:10F1B000EB0EF11C011D111DD601C501817090706F
:10F1C000A070B070DC0199278827E80EF91E0A1F8D
:10F1D0001B1F20EF30E040E050E0A222B322C42207
:10F1E000D52241E1AA0CBB1CCC1CDD1C4A95D1F7F1
:10F1F000EA0CFB1C0C1D1D1D81E090E0A0E0B0E0BE
:10F20000282239224A225B2235E1220C331C441C7D
:10F21000551C3A95D1F7E20CF31C041D151D57013E
:10F220006801AA0CBB1CCC1CDD1C85E192EE60E0E1
:10F230000F94C2F1C801AA27BB270F940DF2BB2778
:10F24000A12F902F8F2D0F940DF28E2D0F940DF274
:10F2500090E29093C6008091C00086FFFCCF809121
:10F26000C00080648093C000AEE3A093C60080918C
:10F27000C00086FFFCCF8091C00080648093C000F6
:10F28000C601AA27BB270F940DF2BB27AD2D9C2DDD
:10F290008B2D0F940DF28A2D0F940DF20F94DCF14B
:10F2A000CC5DDE4FE881F981C452D140F99709F471
:10F2B0004DCBF4E0EF2EF12C012D112D6E0C7F1CA7
:10F2C000801E911EF2CD83E093EE62E00F94F5F183
:10F2D0008AE192EE60E00F94C2F18091C00087FF56
:10F2E000FCCF1091C6001F751093C6008091C0001E
:10F2F00086FFFCCF8091C00080648093C0000F9493
:10F30000DCF1812F81548A3108F036C1163409F4BA
:10F3100095C0173490F4133409F44EC0143430F40B
:10F320001134F1F0123409F01DC130C0143409F465
:10F3300059C0153409F016C16BC01A3409F4C4C0A1
:10F340001B3438F4173409F48FC0183409F00AC19B
:10F35000A1C01B3409F4D2C01C3409F003C1E8C0B9
:10F360008FEF81B90DC082B1809582B980E090E0C5
:10F37000E0EDF7E03197F1F70196883C9105C1F790
:10F380008091C00087FFEFCF12B8EFC08FEF84B934
:10F390000DC085B1809585B980E090E0E0EDF7E0A3
:10F3A0003197F1F70196883C9105C1F78091C00033
:10F3B00087FFEFCF15B8D9C08FEF87B90DC088B1DF
:10F3C000809588B980E090E0E0EDF7E03197F1F7C3
:10F3D0000196883C9105C1F78091C00087FFEFCF6F
:10F3E00018B8C3C08FEF8AB90DC08BB180958BB9A7
:10F3F00080E090E0E0EDF7E03197F1F70196883C8E
:10F400009105C1F78091C00087FFEFCF1BB8ADC059
:10F410008FEF8DB90DC08EB180958EB980E090E0F0
:10F42000E0EDF7E03197F1F70196883C9105C1F7DF
:10F430008091C00087FFEFCF1EB897C08FEF80BBD1
:10F440000DC081B3809581BB80E090E0E0EDF7E0F6
:10F450003197F1F70196883C9105C1F78091C00082
:10F4600087FFEFCF11BA81C08FEF83BB0DC084B38C
:10F47000809584BB80E090E0E0EDF7E03197F1F714
:10F480000196883C9105C1F78091C00087FFEFCFBE
:10F4900014BA6BC08FEF809301010FC080910201FD
:10F4A00080958093020180E090E0E0EDF7E03197F5
:10F4B000F1F70196883C9105C1F78091C00087FF64
:10F4C000EDCF1092020151C08FEF809304010FC065
:10F4D0008091050180958093050180E090E0E0ED4A
:10F4E000F7E03197F1F70196883C9105C1F78091DB
:10F4F000C00087FFEDCF1092050137C08FEF8093DA
:10F5000007010FC08091080180958093080180E079
:10F5100090E0E0EDF7E03197F1F70196883C910536
:10F52000C1F78091C00087FFEDCF109208011DC088
:10F530008FEF80930A010FC080910B01809580931B
:10F540000B0180E090E0E0EDF7E03197F1F70196F4
:10F55000883C9105C1F78091C00087FFEDCF1092E4
:10F560000B0103C085E292EEEEC98091C00087FFD7
:10F57000FCCF8091C600EAC988E392EEE4C98CE131
:10F5800091EEE1C988249924933011F1943028F444
:10F59000913089F09230B8F408C0953061F195301F
:10F5A000F0F0963009F048C043C02B3109F042C951
:10F5B00091E06BE13FC96227C15DDE4F2883CF52E6
:10F5C000D14092E037C9B22FA0E0622793E032C960
:10F5D000822F90E0A82BB92B622794E02BC92E3004
:10F5E00009F039C3622795E0C05DDE4F19821882A9
:10F5F000C053D1401FC9E1E0F0E0EC0FFD1FC05D3A
:10F60000DE4F08811981C053D140E00FF11F2083E4
:10F610000F5F1F4FC05DDE4F19830883C053D14079
:10F6200062270A171B0709F005C9D80196E002C92D
:10F63000261709F010C303C0973009F0FBC87724E0
:10F640009981933109F412C19431C8F4963009F4C8
:10F65000D8C0973050F4923009F406C1933009F4C1
:10F660006DC0913009F059C253C0913109F477C08F
:10F67000923108F0BBC0903109F04FC2F5C098310B
:10F6800009F487C0993150F4953109F4EFC09531F0
:10F6900008F4C6C1963109F040C2C2C19A3109F4DA
:10F6A0006CC09A3108F491C09B3109F45BC09D3164
:10F6B00009F033C29D81903359F48F81882311F46E
:10F6C0009EE11CC0813011F091E018C098E916C08D
:10F6D000892F807591F0903539F4E0E0F0E089E011
:10F6E0008093570094910AC0983539F4E3E0F0E034
:10F6F00089E080935700949101C090E01A821B82A8
:10F700008D818C831D829E831F8227E030E009C299
:10F710001A8288E08B8381E48C8386E58D8382E581
:10F720008E8389E48F8383E5888780E589878FE5E9
:10F730008A8782E38B872BE030E0F3C18A818139AD
:10F7400041F0823941F0803911F48FE005C080E04A
:10F7500003C082E001C08AE01A828B8344C0772410
:10F76000739482C08D81882311F48EE12CC0813086
:10F7700011F081E028C088E926C01A82E1E0F0E0BB
:10F7800089E08093570084918B831C8224E030E0D1
:10F79000C8C18B81803589F48C81883039F4E2E0EE
:10F7A000F0E089E08093570084910DC0E0E0F0E044
:10F7B00089E080935700849106C0E3E0F0E089E09F
:10F7C0008093570084911A82DFCF8D81836C99E0FA
:10F7D000E1E0F0E0082E90935700E89507B600FCB2
:10F7E000FDCF1A821B8223E030E09BC180EC8A832C
:10F7F000CE5CDE4F188219821A821B82C253D1401E
:10F800008EC18A8190E0A0E0B0E0582F44273327D2
:10F8100022278B8190E0A0E0B0E0DC0199278827C7
:10F82000282B392B4A2B5B2B8D8190E0A0E0B0E098
:10F83000282B392B4A2B5B2B8C8190E0A0E0B0E089
:10F84000BA2FA92F982F8827282B392B4A2B5B2BCF
:10F85000220F331F441F551FC05EDE4F288339839C
:10F860004A835B83C052D1401A8259C13A81C95C34
:10F87000DE4F3883C753D140CA5CDE4F1882C6536F
:10F88000D1408B81C82EDD24CA5CDE4F488159816E
:10F89000C653D140C42AD52A933109F082C0CE5C28
:10F8A000DE4F88819981AA81BB81C253D1408050AB
:10F8B000904CA340B04030F583E0CE5CDE4FE88052
:10F8C000F9800A811B81C253D140F70100935B008C
:10F8D00080935700E89507B600FCFDCFCE5CDE4F65
:10F8E000088119812A813B81C253D14000501F4FAA
:10F8F0002F4F3F4FCE5CDE4F088319832A833B8313
:10F90000C253D140C05EDE4F488159816A817B81FC
:10F91000C052D140DE011B9631E08C9111962C91A2
:10F9200011971296C75CDE4F2883C953D140C85C3B
:10F93000DE4F1882C853D14090E0C85CDE4FE881AA
:10F94000F981C853D1408E2B9F2B0C01FA01609393
:10F950005B0030935700E89511244E5F5F4F6F4F67
:10F960007F4F0EEFE02E0FEFF02ECE0CDF1CC114F8
:10F97000D10499F685E0C05EDE4F088119812A81A5
:10F980003B81C052D140F80120935B008093570027
:10F99000E89507B600FCFDCF81E180935700E8951C
:10F9A00035C0C05EDE4F88819981AA81BB81C0527B
:10F9B000D140B695A795979587957C018601ABE0D8
:10F9C000AA2EB12CAC0EBD1E0BC0D5016D915D01F0
:10F9D000C7010F947FFE0894E11CF11C01501040F8
:10F9E0000115110591F7A60160E070E0440F551F65
:10F9F000661F771FC05EDE4FE880F9800A811B8199
:10FA0000C052D1404E0D5F1D601F711F1A82C05E33
:10FA1000DE4F488359836A837B83C052D1407FC0C5
:10FA2000FA80C55CDE4FF882CB53D140C65CDE4F16
:10FA30001882CA53D1408B81C82EDD24C65CDE4FAC
:10FA400008811981CA53D140C02AD12A1A828981DA
:10FA5000BE016D5F7F4F843121F59601C05EDE4FA0
:10FA6000E880F9800A811B81C052D1400BBFF701A9
:10FA700087919691DB018C9311969C936E5F7F4FDB
:10FA8000D801C7010296A11DB11DC05EDE4F88835B
:10FA90009983AA83BB83C052D14022503040F1F6F3
:10FAA00036C0C05EDE4F288139814A815B81C052F9
:10FAB000D1400894C108D108760100E010E0089414
:10FAC000C11CD11C0894E11CF11C011D111DE20E8A
:10FAD000F31E041F151F21BDBB27A52F942F832FB5
:10FAE00082BD2F5F3F4F4F4F5F4FF89A80B5DB01CC
:10FAF0008D93BD012E153F054007510761F7C05E8C
:10FB0000DE4F288339834A835B83C052D1409601FC
:10FB10002D5F3F4FFB01108204C080EC8A8322E0FE
:10FB200030E08BE18093C6008091C00086FFFCCF5F
:10FB30008091C00080648093C000C15DDE4FF88179
:10FB4000CF52D140F093C6008091C00086FFFCCF19
:10FB50008091C00080648093C000432F3093C60022
:10FB60008091C00086FFFCCF8091C00080648093AC
:10FB7000C000922F2093C6008091C00086FFFCCF6A
:10FB80008091C00080648093C0008EE08093C600A6
:10FB90008091C00086FFFCCF8091C000806480937C
:10FBA000C00065E1C15DDE4FE880CF52D1406E25D7
:10FBB00069276427FE01319610C090819093C6009A
:10FBC0008091C00086FFFCCF31968091C000806498
:10FBD0008093C0006927215030402115310569F715
:10FBE0006093C6008091C00086FFFCCF8091C0006A
:10FBF00080648093C00085B1805885B9772081F4F6
:10FC0000C15DDE4F0881CF52D1400F5FC15DDE4F35
:10FC10000883CF52D14090E0A0E0B0E00D941AF4F8
:10FC200027982F9880E090E020ED37E0F901319798
:10FC3000F1F7019684369105C9F700008091C00064
:10FC40008D7F8093C00081E180935700E895EE2777
:10FC5000FF270994FFCF90E00D941AF497FB092E2B
:10FC600007260AD077FD04D02ED006D000201AF443
:10FC7000709561957F4F0895F6F7909581959F4F08
